:100000000C9437050C945F050C945F050C945F0508
:100010000C945F050C945F050C945F050C945F05D0
:100020000C945F050C945F050C945F050C945F05C0
:100030000C945F050C945F050C945F050C945F05B0
:100040000C9430150C945F050C945F050C945F05BF
:100050000C945F050C945F050C945F050C945F0590
:100060000C947A150C945F0508000000BE92244998
:10007000123EABAAAA2ABECDCCCC4C3E00000080DA
:10008000BEABAAAAAA3E00000000BF000000803F4D
:100090000000000000084178D3BB4387D1133D190D
:1000A0000E3CC3BD4282AD2B3E68EC8276BED98F3A
:1000B000E1A93E4C80EFFFBE01C4FF7F3F0000007E
:1000C000000000407A10F35A00A0724E1809001088
:1000D000A5D4E80000E87648170000E40B540200BD
:1000E00000CA9A3B000000E1F505000080969800E8
:1000F000000040420F000000A08601000000102711
:1001000000000000E80300000000640000000000A0
:100110000A00000000000100000000002C76D888D2
:10012000DC674F0823DFC1DFAE59E1B1B796E5E3E5
:10013000E453C63AE651997696E8E6C28426EB89FE
:100140008C9B62ED407C6FFCEFBC9C9F40F2BAA59B
:100150006FA5F490055A2AF75C936B6CF9676DC133
:100160001BFCE0E40D47FEF520E6B500D0ED902E37
:100170000300943577050080841E080000204E0A95
:10018000000000C80C333333330F986E12831141D3
:10019000EF8D2114893BE65516CFFEE6DB18D1849E
:1001A0004B381BF77C1D901DA4BBE42420328472C5
:1001B0005E228100C9F124ECA1E53D27AE00C80014
:1001C000400081017FA100A600A8013FD30100D516
:1001D0000180D90122DA0112DB01208D0114A40073
:1001E000AF00000000080002010000030407000047
:1001F00000000000000000081020000000000000C7
:1002000000000000000000000000000000F80000F6
:100210000000000000333000000000100C06100C3D
:100220000600000000000000000040C07840C078D8
:100230004000043F04043F040400007088FC0830C0
:100240000000001820FF211E0000F008F000E01858
:10025000000000211C031E211E0000F00888700011
:1002600000001E2123241927211010160E00000063
:1002700000000000000000000000000000E0180482
:100280000200000000071820400000020418E000EF
:1002900000000040201807000000404080F080402F
:1002A00040000202010F01020200000000F0000005
:1002B00000000101011F0101010000000000000019
:1002C000000080B07000000000000000000000008E
:1002D0000000000101010101010100000000000017
:1002E00000000030300000000000000000008060CE
:1002F0001804006018060100000000E01008081053
:10030000E000000F102020100F00001010F8000077
:1003100000000020203F202000000070080808880E
:1003200070000030282422213000003008888848DE
:1003300030000018202020110E000000C02010F80E
:10034000000000070424243F240000F808888808DF
:1003500008000019212020110E0000E010888818E4
:100360000000000F112020110E0000380808C838C6
:1003700008000000003F00000000007088080888A6
:100380007000001C222121221C0000E0100808102F
:10039000E0000000312222110F00000000C0C00068
:1003A000000000000030300000000000008000006D
:1003B000000000008060000000000000804020106D
:1003C0000800000102040810200040404040404066
:1003D00040000404040404040400000810204080C9
:1003E00000000020100804020100007048080808FE
:1003F000F0000000003036010000C030C828E810CE
:10040000E0000718272423140B000000C038E00088
:100410000000203C23020227382008F888888870D2
:100420000000203F202020110E00C03008080808DE
:100430003800071820202010080008F808080810C5
:10044000E000203F202020100F0008F88888E808EE
:100450001000203F20202320180008F88888E80892
:100460001000203F200003000000C03008080838BA
:10047000000007182020221E020008F808000008CB
:10048000F808203F210101213F20000808F8080852
:1004900000000020203F2020000000000808F8088D
:1004A0000800C08080807F00000008F888C02818FD
:1004B0000800203F20012638200008F8080000002E
:1004C0000000203F20202020300008F8F800F8F835
:1004D0000800203F003F003F200008F830C000081F
:1004E000F808203F200007183F00E0100808081017
:1004F000E0000F10202020100F0008F8080808085E
:10050000F000203F210101010000E0100808081060
:10051000E0000F18242438504F0008F88888888895
:100520007000203F2000030C30200070880808086D
:1005300038000038202121221C00180808F808087B
:1005400018000000203F2000000008F80800000804
:10055000F808001F202020201F000878880000C80D
:100560003808000007380E010000F80800F80008FD
:10057000F800033C0700073C030008186880806807
:10058000180820302C03032C30200838C800C83845
:1005900008000000203F2000000010080808C838AC
:1005A00008002038262120201800000000FE02024A
:1005B00002000000007F40404000000C30C00000FE
:1005C0000000000000010638C00000020202FE0028
:1005D0000000004040407F000000000004020202D2
:1005E0000400000000000000000000000000000007
:1005F00000008080808080808080000202040000F3
:1006000000000000000000000000000080808080EA
:1006100000000019242222223F2008F800808000D8
:100620000000003F112020110E000000008080809B
:100630000000000E112020201100000000808088A2
:10064000F800000E112020103F20000080808080E4
:100650000000001F222222221300008080F08888E0
:1006600088180020203F202000000000808080802B
:100670008000006B94949493600008F80080808060
:100680000000203F210000203F20008098980000BB
:1006900000000020203F20200000000000809898EB
:1006A000000000C08080807F000008F8000080808B
:1006B0008000203F24022D302000000808F80000B0
:1006C00000000020203F202000008080808080806B
:1006D0008000203F20003F20003F808000808080FD
:1006E0000000203F210000203F200000808080800B
:1006F0000000001F202020201F008080008080003C
:10070000000080FFA12020110E00000000808080EA
:100710008000000E112020A0FF808080800080805B
:10072000800020203F212000010000008080808088
:1007300080000033242424241900008080E080807D
:1007400000000000001F20200000808000000080CA
:100750008000001F202020103F208080800000802B
:10076000808000010E30080601008080008000803B
:1007700080800F300C030C300F00008080008080E0
:1007800080000020312E0E3120008080800000800B
:10079000808080818E7018060100008080808080BB
:1007A00080000021302C2221300000000000807CDD
:1007B000020200000000003F404000000000FF0077
:1007C000000000000000FF0000000002027C80002A
:1007D00000000040403F000000000006010102024E
:1007E00004040000000000000000000000002500DC
:1007F00028002B0000000000240027002A00040429
:1008000004040404040402020202020203030303B8
:100810000303010204081020408001020408102094
:10082000010204081020000608200000000000005B
:100830000000002F000000000700070000147F14D4
:100840007F1400242A7F2A120023130864620036D2
:100850004955225000000503000000001C22410001
:10086000000041221C000014083E08140008083E45
:100870000808000000A06000000808080808000040
:1008800060600000002010080402003E5149453E0F
:100890000000427F4000004261514946002141452D
:1008A0004B31001814127F10002745454539003C94
:1008B0004A49493000017109050300364949493662
:1008C00000064949291E0000363600000000563651
:1008D0000000000814224100001414141414000035
:1008E0004122140800020151090600324959513EC3
:1008F000007C1211127C007F49494936003E41417B
:100900004122007F4141221C007F49494941007F2B
:1009100009090901003E4149497A007F0808087F1A
:100920000000417F4100002040413F01007F08144A
:100930002241007F40404040007F020C027F007F48
:100940000408107F003E4141413E007F090909062D
:10095000003E4151215E007F091929460046494960
:1009600049310001017F0101003F4040403F001F2D
:100970002040201F003F4038403F006314081463AC
:1009800000070870080700615149454300007F4196
:10099000410000552A552A55000041417F000004BE
:1009A00002010204004040404040000001020400F7
:1009B000002054545478007F48444438003844445C
:1009C000442000384444487F0038545454180008E8
:1009D0007E0901020018A4A4A47C007F0804047806
:1009E0000000447D4000004080847D00007F10288E
:1009F00044000000417F4000007C04180478007C23
:100A00000804047800384444443800FC24242418A2
:100A10000018242418FC007C0804040800485454DE
:100A2000542000043F444020003C4040207C001CF7
:100A30002040201C003C4030403C0044281028440A
:100A4000001CA0A0A07C004464544C440000087723
:100A500000000000007F0000000077080000001088
:100A6000081008001414141414140000C8161124DB
:100A70001FBECFEFD8E0DEBFCDBF12E0A0E0B1E0F7
:100A8000EEE6F4E402C005900D92AE37B107D9F757
:100A900023E0AEE7B2E001C01D92A93EB207E1F744
:100AA00015E0C7E3D5E004C02197FE010E942A2289
:100AB000C633D107C9F70E947B170C9435220C94DA
:100AC000000090E0FC01EE5EF74F24918250984FB9
:100AD000FC018491882399F090E0880F991FFC0114
:100AE000EC50F84FA591B491FC01E651F84F859177
:100AF00094918FB7F894EC91E22BEC938FBF08950B
:100B000090E0FC01EE51FE4F2491FC01EE5EF74FA8
:100B10003491FC01E250F84FE491EE23C9F0222316
:100B200039F0233001F1A8F4213019F1223029F1F4
:100B3000F0E0EE0FFF1FE651F84FA591B4918FB78B
:100B4000F894EC91611126C030953E233C938FBF01
:100B500008952730A9F02830C9F0243049F7809152
:100B600080008F7D03C0809180008F77809380000C
:100B7000DFCF84B58F7784BDDBCF84B58F7DFBCF8E
:100B80008091B0008F778093B000D2CF8091B00079
:100B90008F7DF9CF3E2BDACF8E3008F08E5020912A
:100BA000000190E4299F900111248770822B80938B
:100BB0007C0080917A00806480937A0080917A0032
:100BC00086FDFCCF8091780090917900089584E1B2
:100BD0000E94CC059C012B5531092F3E310540F474
:100BE0008A3A91053CF08A3F910534F081E00895FE
:100BF00080E0089582E0089583E008953FB7F89477
:100C00008091F0029091F102A091F202B091F30272
:100C100026B5A89B05C02F3F19F00196A11DB11D57
:100C20003FBFBA2FA92F982F8827BC01CD01620F93
:100C3000711D811D911D42E0660F771F881F991F4E
:100C40004A95D1F708958F929F92AF92BF92CF921B
:100C5000DF92EF92FF926B017C010E94FE054B0137
:100C60005C01C114D104E104F104B9F00E94FE0555
:100C7000681979098A099B09683E734081059105C5
:100C800080F321E0C21AD108E108F10888EE880E4D
:100C900083E0981EA11CB11CE4CFFF90EF90DF9081
:100CA000CF90BF90AF909F908F9008952FB7F894FA
:100CB0006091EC027091ED028091EE029091EF0252
:100CC0002FBF08952091C602260F3327331F2132EC
:100CD0003105ECF420912F03FC0190E080E02430FA
:100CE00069F082E00895A091C6022191AC014C55B3
:100CF0005D4FA40FB52FB11D2C930196861798F365
:100D00008091C602680F6093C60280E0089581E07A
:100D1000089510922F0381E080932E03109209030F
:100D200061E082E10E94800561E083E10E9480052C
:100D3000E9EBF0E080818E7F808380818D7F8083EE
:100D400088E48093B80085E48093BC000895CF9335
:100D5000DF9391E09093A3028823B9F0C091B8008B
:100D6000D091BA008091BC008A7B8093BC0060E087
:100D700082E10E94800560E083E10E9480050E947C
:100D80008906D093BA00C093B800DF91CF9108953F
:100D9000CF92DF92EF92FF920F931F93CF93DF9347
:100DA000D091580381E0D13208F09CC0C091570324
:100DB0000E94FE056B017C0180912F0381116CC0A4
:100DC00082E080932F0381E080932E038FEF809346
:100DD0002D0310922C03D0932B03A7E3B3E0EBE099
:100DE000F3E080E0D8138DC010920A0380910A03CB
:100DF000CC0FC82BC0930A0380910903813009F0FE
:100E000084C0109209030E94FE056B017C01809151
:100E10000A038093BB008091310390913203A0912B
:100E20003303B0913403892B8A2B8B2BA1F00E94C2
:100E3000FE0500913103109132032091330330916C
:100E400034036C197D098E099F09061717072807B7
:100E5000390708F442C08091BC0083FDD8CF85ECEF
:100E60008093BC000E94FE056B017C0180912F03E2
:100E7000823009F44CC080912D038F3F09F469C082
:100E800080912D03803209F466C080912D03803358
:100E900009F463C084E026C080913103909132034D
:100EA000A0913303B0913403892B8A2B8B2B09F447
:100EB00083CF0E94FE0500913103109132032091EF
:100EC0003303309134036C197D098E099F0906178D
:100ED00017072807390708F06FCF809130030E9469
:100EE000A70685E01092360310925803109235033E
:100EF000DF91CF911F910F91FF90EF90DF90CF90F6
:100F000008959D9191938F5F6DCF85EEA9CF8091CC
:100F1000310390913203A0913303B0913403892BB4
:100F20008A2B8B2B09F4A2CF0E94FE05009131037E
:100F30001091320320913303309134036C197D09F1
:100F40008E099F09061717072807390708F08ECF63
:100F5000C4CF80E0C7CF82E0C5CF83E0C3CF089580
:100F600008950895E091A2028091A102E81730F45B
:100F7000F0E0EF57FD4F808190E008958FEF9FEFF5
:100F800008959091A2028091A1022FEF3FEF981750
:100F900048F4E92FF0E0EF57FD4F208130E09F5FEC
:100FA0009093A202C90108958091A1029091A2029A
:100FB000891B990B0895CF92DF92EF92FF920F93C6
:100FC0001F93CF93DF937C01CB018A0120913503DE
:100FD000222389F0EB016B01C40ED51ECC15DD0573
:100FE00069F06991D701ED91FC910190F081E02DBC
:100FF000C7010995F3CF642F0E946206C801DF91F3
:10100000CF911F910F91FF90EF90DF90CF900895B7
:10101000CF93DF931F92CDB7DEB76983209135035D
:101020002223F9F020915803203258F021E030E0DB
:10103000FC013383228390E080E00F90DF91CF9119
:10104000089580913603E82FF0E0E95CFC4F998128
:1010500090838F5F809336038093580381E090E004
:10106000ECCF61E0CE0101960E946206F7CF90E0DE
:1010700080E008950895FC018381882319F0815050
:10108000838308958281FBCFFC01838122812150DB
:10109000330B821713061CF48F5F8383089513822A
:1010A00008950C948005FC01828191E090933503B2
:1010B00080935703109236031092580310928002C7
:1010C00008951F93CF93DF93EC01162F8091800238
:1010D00081110FC06B83612F89E593E00E9408089E
:1010E000809180028F5F80938002DF91CF911F916A
:1010F00008958E3180F30E94C806CE010E945308E5
:101100006B81CE010E946108E6CFFB0124913196EC
:10111000E491322F2E2FFB013296E491E11103C0AE
:1011200090E080E008956D5F7F4FDC01FC914217F5
:10113000530730F0D901AE0FB11D4A175B0728F0F5
:10114000EF9F600D711D1124E0CF421B530BF49FE4
:10115000C001F59F900D1124860F971F0895482F09
:1011600020917E0230917F022115310551F490E0EB
:10117000803CA8F090937F0280937E028FEF9FEFD8
:10118000089586E0220F331F8A95E1F7207C37709F
:101190004F73C901842B10927F0210927E02089532
:1011A000CF92DF92EF92FF920F931F93CF93DF9333
:1011B00000D000D01F92CDB7DEB77C016B0110E0EC
:1011C00000E0D6018D916D018823D9F08D30C9F0F2
:1011D0008A30B9F00E94AF088F3F980791F3D7018A
:1011E0001C96ED91FC91AE014F5F5F4FBC01C701B2
:1011F000099589819B81890F9927991F080F191FCC
:10120000E0CFC8010F900F900F900F900F90DF91DB
:10121000CF911F910F91FF90EF90DF90CF900895A5
:10122000DC01FB0184918C933196849111968C930F
:1012300011973196249112962C9312973196E4913E
:101240001396EC9313976C5F7F4F19967C936E9374
:10125000189748E459E01D965C934E931C9730E034
:10126000295F3F4F93E0359527959A95E1F71596BD
:101270002C931597829FE02D11241696EC931697C8
:1012800017961C9217971B961C921E921A970895F8
:10129000EF92FF920F931F93CF93DF934115510568
:1012A00009F44BC08A017B01EC018981FA0180833A
:1012B0008A8181838F81828368857985F0E8EF1642
:1012C000F10490F4888181110FC06115710579F0E6
:1012D0008B81E81AF1082E812E9DC0012F9D900D63
:1012E0001124860F971F26C061157105E1F46A85E8
:1012F0007B856115710541F54B8188859985242F82
:10130000042E000C330B241B31094E81429FB00187
:10131000439F700D112428812130F1F030E020E04E
:10132000620F731FDECFA701CE0106960E948508CB
:101330000097E9F2F80194838383DF91CF911F91A5
:101340000F91FF90EF900895A701CE0106960E949D
:101350008508009779F7D0CF23E030E0E1CFCF9335
:10136000DF93EC010E9453088C8187FD09C070E077
:1013700060E0082E000C990BDF91CF910C9451087E
:1013800060E0CE01DF91CF910C946108DF92EF9283
:10139000FF920F931F93CF93DF938C011092A202C1
:1013A0001092A10210923603109258030E948906EF
:1013B0008FEA97E09093C5028093C40280EB97E098
:1013C0009093C9028093C8028CE08093B800F80122
:1013D000C789C7FD27C08C2F0E9461050C2E000C09
:1013E000DD0B61E070E0CE010E9451086AE070E020
:1013F00080E090E00E94230670E060E0CE010E9451
:1014000051086AE070E080E090E00E94230661E00D
:1014100070E0CE010E9451086AE070E080E090E048
:101420000E94230680E890E0F8019383828380E4A1
:1014300090E09583848360E070E0CB010E942306F6
:10144000F80105891689C8010E94AF09CCEBD1E0EB
:1014500082EEE82E81E0F82EDD24DA9481E0FE01B0
:1014600064918823B1F08F3F69F470E090E080E0F0
:101470006F3F21F464EF71E080E090E00E9423066A
:1014800081E00FC0C8010E946108DD24DA9480E089
:1014900008C0FFEFDF1212C067FD18C0662381F39A
:1014A000D62E2196EC16FD06D1F6DF91CF911F9135
:1014B0000F91FF90EF90DF900C94C806DA94C8016A
:1014C0000E94610881E0DD2061F3E1CF862FE9CF42
:1014D000FF920F931F93CF93DF93EC018B01F42EB8
:1014E000688749870E94AF096F2D606BCE010E940B
:1014F0006108B8016E5F7F4F84E0769567958A95A5
:10150000E1F76061CE010E94610862E0600F6F70D8
:10151000CE010E9461088C8187FD0CC061E070E003
:10152000082E000C990BDF91CF911F910F91FF9026
:101530000C9451080E94C806CE010E94530860E432
:10154000CE01DF91CF911F910F91FF900C94610814
:101550002F923F924F925F926F927F928F929F92C3
:10156000AF92BF92CF92DF92EF92FF920F931F93B1
:10157000CF93DF93CDB7DEB72A970FB6F894DEBFCF
:101580000FBECDBF482E292E5A01322E7B01B3E06B
:10159000F594E794BA95E1F7A701682F792F809128
:1015A000DC039091DD030E94680AC32C81E0032CC8
:1015B00001C0880F0A94EAF78A87542C612C1F8295
:1015C00010E0E091DA03F091DB03818190E00C2CD4
:1015D00002C0880F991F0A94E2F72091C903309145
:1015E000CA03281B390B5216130609F030F4D50133
:1015F000A10FB11D8C91811132C02FEFE21AF20AB6
:101600008091CB039091CC03A3E096958795AA9502
:10161000E1F7E816F90608F0D1C06394858190E0FF
:101620000C2C02C0880F991F0A94E2F7681619065D
:1016300049F4F501E10FF11D8081882309F4BEC052
:101640001F83612C0E94C806A701642D722D809112
:10165000DC039091DD030E94680A542C1F81F50180
:10166000E10FF11D80810E94AF081F5F8F3F980737
:10167000B1F3A091DA03B091DB031C96ED91FC91DC
:101680001D97AE014F5F5F4FBC01CD0109950981E8
:10169000202F30E04B81C901840F911D0C2C01C01B
:1016A000880F0A94EAF7580E862D90E00C2C02C0A1
:1016B000959587950A94E2F75A81BC01E3E0660F9D
:1016C000771FEA95E1F75617170609F00CF45DC08D
:1016D000289FA001299F500D389F500D11248C8107
:1016E0009D81840F951F9D838C8360FA882480F8E8
:1016F000912CC401880F991F880F991F998788879B
:10170000002309F444C0EC81FD817490332029F159
:10171000E72DF0E0088402C0F595E7950A94E2F71A
:1017200090E080E0712C84309105B9F09F01082E83
:1017300002C0359527950A94E2F720FF0CC09C0162
:10174000220F331F43E001C0440F2A95EAF7242FEC
:10175000722A0196E8CF20E0FBCF8A858E836091C4
:10176000D80367258091DC039091DD030E94610816
:101770002E81213039F48C819D8101969D838C834B
:101780000150BECF91E09E83EACF040F0B8300E0AF
:101790008B8190E00C2C02C0880F991F0A94E2F70D
:1017A000081719060CF00DCF6091D8038091DC0367
:1017B0009091DD030E9461080F5FEACF0E94C80686
:1017C0002A960FB6F894DEBF0FBECDBFDF91CF9142
:1017D0001F910F91FF90EF90DF90CF90BF90AF904F
:1017E0009F908F907F906F905F904F903F902F9041
:1017F00008955F926F927F928F929F92AF92BF9265
:10180000CF92DF92EF92FF920F931F93CF93DF93CC
:1018100000D000D01F92CDB7DEB78C01762E572EA8
:1018200049016A0133E0D594C7943A95E1F7A601DE
:10183000DC0153968D919C910E94680AA72CE12CA3
:10184000612CF12CD8015196ED91FC915297218198
:101850008D919C91821B9109A816190609F030F40C
:10186000D401AF0DB11D8C91811129C0BFEFCB1AEE
:10187000DB0AD80112968D919C9123E0969587956D
:101880002A95E1F7C816D9060CF069C0E394858162
:10189000E81209C0F401EF0DF11D8081882309F4DD
:1018A0005EC06F2CE12C0E94C806A601672D752D25
:1018B000F801838994890E94680AA72CF62CF40108
:1018C000EF0DF11D80810E94AF08F3948F3F9807C0
:1018D000B1F3F801A189B2891C96ED91FC911D9795
:1018E000AE014F5F5F4FBC01CD010995B9808B817F
:1018F0008B0DA80E9A81F8E0EF9E900111249217AB
:101900001306F9F0F4F08C819D81EB9C800D911D04
:1019100011249D838C83BB20A9F0EC81FD8164910F
:10192000D8011F96EC911F976E2753968D919C912D
:101930000E9461088C819D8101969D838C83BA945D
:10194000EACF8B83B12C8B81B81608F07BCFF801DE
:101950006785838994890E946108B394F4CF0E94BB
:10196000C8060F900F900F900F900F90DF91CF91BE
:101970001F910F91FF90EF90DF90CF90BF90AF90AD
:101980009F908F907F906F905F900895EF92FF925D
:101990000F931F93CF93DF93C82F7B018A01AB0175
:1019A00083E0559547958A95E1F76C2F792F8091C3
:1019B000DC039091DD030E94680A87E0E822FF249F
:1019C000D1E001C0DD0FEA94EAF7C017110609F073
:1019D00064F46091D60360956D278091DC0390914B
:1019E000DD030E946108CF5FF0CFDF91CF911F919F
:1019F0000F91FF90EF900C94C806CF93DF93EC010A
:101A00000E94C806498550E04F5F5F4F688570E0CF
:101A1000CE01DF91CF910C94680AFF920F931F9330
:101A2000CF93DF93F090D80350E040E070E060E0A7
:101A30008091DC039091DD030E94680AC091CB0382
:101A4000D091CC0383E0D695C7958A95E1F720978E
:101A5000A9F00091C9031091CA038091DC03909111
:101A6000DD030115110531F06F2D0E946108015051
:101A70001109F3CF0E94FD0C2197E9CFDF91CF919F
:101A80001F910F91FF900C94C8067F928F929F92A6
:101A9000AF92BF92CF92DF92EF92FF920F931F937C
:101AA000CF93DF937C015B018A01690148175907D5
:101AB0000CF489C0261737070CF485C08091C90340
:101AC0009091CA034817590718F08C010150110969
:101AD0008091CB039091CC03C816D90620F06C01FD
:101AE00021E0C21AD1087090D603E50183E0D595B4
:101AF000C7958A95E1F78C2EC60123E095958795C9
:101B00002A95E1F7982EAE015527B7018091DC03A5
:101B10009091DD030E94680A960120953095277008
:101B200033278FEF90E0AC0102C0559547952A9579
:101B3000E2F7D42F950127703327B82E022E01C06B
:101B4000BB0C0A94EAF7A901495F5F4F67E0C62220
:101B5000DD244C195D0902C0959587954A95E2F7F9
:101B600001C0880F2A95EAF7D82E9C16E8F06D2D53
:101B7000891431F06B2D8C1619F06D2F9C126FEFBC
:101B8000AE2CC62EC7208091DC039091DD03A016F9
:101B9000110609F02CF46C2D0E946108A394F3CF78
:101BA0000E94FD0CCF5FE1CFDF91CF911F910F918C
:101BB000FF90EF90DF90CF90BF90AF909F908F906D
:101BC0007F900C94C806DF91CF911F910F91FF90E9
:101BD000EF90DF90CF90BF90AF909F908F907F90CD
:101BE0000895EF92FF920F931F93CF93DF937B01A2
:101BF000EA01AB0123E0559547952A95E1F7142FAB
:101C00009E0163E0359527956A95E1F7022F5527E8
:101C1000BC018091DC039091DD030E94680AF7010A
:101C2000E770FF272091DC033091DD039091D6030C
:101C300010131DC0CE1947E050E04C1B51096FEF47
:101C400070E002C0759567954A95E2F701C0660F8E
:101C5000EA95EAF790956927C9010E946108DF912A
:101C6000CF911F910F91FF90EF900C94C806909523
:101C70006FEF70E001C0660FEA95EAF76927C901C6
:101C80000E9461088091DC039091DD031F5F1017B3
:101C900048F40E94FD0C6091D6038091DC03909182
:101CA000DD03EECF0E94FD0CC095D095C770DD27F7
:101CB0008FEF90E002C095958795CA95E2F7609105
:101CC000D603609568278091DC039091DD03C5CF32
:101CD0005F926F927F928F929F92AF92BF92CF92BC
:101CE000DF92EF92FF920F931F93CF93DF93EC015C
:101CF000A884B9848A859B85892B41F48091C90386
:101D00009091CA038A199B099B878A87EE80FF807E
:101D10008C859D85892B41F48091CB039091CC03D8
:101D20008E199F099D878C87CC84DD8445E0C41A79
:101D3000D108CE0CDF1C0A851B85055011090A0D40
:101D40001B1D54E0E50EF11C84E0A80EB11CA80197
:101D5000B701C5010E94C60CA801B601C5010E94C9
:101D6000C60CA601B701C5010E94F10DA601B7017D
:101D7000C8010E94F10D5B802D815216A8F08C8560
:101D80009D854097E091DA03F091DB03628170E07A
:101D90000E941622E52DE21BFF0B5394561A6E1774
:101DA0001F0611F00CF0522E5D82C52CD12CAD8097
:101DB000B12CE091DA03F091DB0302813B818C8549
:101DC0009D85409710E0B8010E9416228A8190E01C
:101DD0006A0D7B2D711D861797070CF4BC01C61682
:101DE000D7060CF076C0531210C08091D6039091A4
:101DF000D7032091D8033091D9033093D703209390
:101E0000D6039093D9038093D803EE80FF8048E0F7
:101E1000E40EF11C96012A193B09209FC001219F65
:101E2000900D309F900D1124E80EF91E6090D6039E
:101E30007090D7031092D7031092D60388849984A8
:101E4000AA84BB8459E0A51AB108A80CB91CCC0C13
:101E5000DD1CA881B981AC0DBD1D6D917C91CF01B8
:101E60000E94D00898012E0D3F1D21503109E8E055
:101E70008E0E911CA501B701880D991D0E94450D7C
:101E80007092D7036092D60388819981C80ED91EBB
:101E9000F6012081318168857985685F7F4FA701D0
:101EA00089EC93E00E94F90B8B81581210C080914D
:101EB000D6039091D7032091D8033091D903309362
:101EC000D7032093D6039093D9038093D8035394D8
:101ED0006CCF3C83DF91CF911F910F91FF90EF90DA
:101EE000DF90CF90BF90AF909F908F907F906F903A
:101EF0005F9008958F929F92AF92BF92CF92DF92A0
:101F0000EF92FF921F93CF93DF93EC01CF80D884A1
:101F1000E984FA8420E030E048EC51ECC701B601D6
:101F20000E94C01F87FD0AC020E030E040EA52E472
:101F3000C701B6010E941F211816BCF41BA5113061
:101F400041F460E08CA50E9480051BA6C85BDF4FB2
:101F50001883DF91CF911F91FF90EF90DF90CF908A
:101F6000BF90AF909F908F90089589A5811129C04F
:101F70008D8C9E8CAF8CB8A029A13AA14BA15CA1FD
:101F8000C701B6010E94541FA50194010E94C01F01
:101F900087FF0DC08BA581110AC061E08CA50E944E
:101FA000800581E08BA7C85BDF4F8883D2CFA50176
:101FB0009401C701B6010E941F2118160CF4BECF70
:101FC000C8CF813031F68D8C9E8CAF8CB8A029A102
:101FD0003AA14BA15CA1C701B6010E94541FA50103
:101FE00094010E941F2118161CF48BA58823A9F2C6
:101FF000A5019401C701B6010E94C01F87FD9ECFB5
:10200000A8CFFC0180918403882319F0813099F0D6
:10201000089587819085A185B28583879487A58758
:10202000B6878787908BA18BB28B81E0838F848F5B
:1020300010929301089582E08093930108954F9246
:102040005F926F927F929F92AF92BF92CF92DF92F8
:10205000EF92FF920F931F93CF93DF9300D000D0A6
:10206000CDB7DEB77C016B01B22EFA014080518002
:102070006280738020E030E048EC51ECC301B20193
:102080000E94C01F181654F420E030E040EA52E4E9
:10209000C301B2010E941F2187FD1FC0F6016081AC
:1020A00071812B2D46ED51E0F701808191810E94D5
:1020B000A80A0F900F900F900F90DF91CF911F9172
:1020C0000F91FF90EF90DF90CF90BF90AF909F90D7
:1020D0007F906F905F904F9008958091DC01909178
:1020E000DD01A091DE01B091DF0189839A83AB838A
:1020F000BC838E010F5F1F4F21E044E0C301B2019A
:102100000E94B11CF601608171812B2DA801F7019D
:10211000808191810E94A80AAA24A394AB0C8EE12D
:10212000A89E902C1124B80189EB93E00E94D0085E
:10213000A89E002D11241A2D110F1A0D110F09152B
:1021400008F0B7CFF60160817181F701808191813C
:102150002B2D4EED51E0800F911D0E94A80A010F1A
:10216000EECFCF92DF92EF92FF9280911D0181110D
:1021700005C080916601882309F4B4C010921D0146
:1021800010926601409147015091480120EE31E0E4
:1021900070E060E089EC93E00E94F90BC0901001C0
:1021A000D0901101E0901201F090130120E030E096
:1021B00048EC51ECC701B6010E941F2118160CF023
:1021C00002C120E030E040EA52E4C701B6010E94BB
:1021D000C01F87FFF8C020E040E151E060E971E0F6
:1021E00085E491E00E941F10C0905901D0905A01DF
:1021F000E0905B01F0905C0120E030E048EC51ECB5
:10220000C701B6010E941F2118160CF0EAC020E099
:1022100030E040EA52E4C701B6010E94C01F87FFC8
:10222000E0C020E049E551E060E971E08EE891E02E
:102230000E941F1040914301509144012AEE31E069
:1022400070E060E089EC93E00E94F90BC0900C0113
:10225000D0900D01E0900E01F0900F0120E030E0F1
:1022600048EC51ECC701B6010E941F2118160CF072
:10227000C6C020E030E040EA52E4C701B6010E9447
:10228000C01F87FFBCC020E04CE051E063E471E078
:1022900081E491E00E941F10C0905501D09056013A
:1022A000E0905701F090580120E030E048EC51EC0C
:1022B000C701B6010E941F2118160CF0AEC020E025
:1022C00030E040EA52E4C701B6010E94C01F87FF18
:1022D000A4C020E045E551E06CE871E08AE891E0B7
:1022E0000E941F1080914901882359F010924901E2
:1022F00021E048E051E06BE371E089E391E00E9466
:102300001F1080919201882359F01092920121E0D0
:1023100041E551E064E871E082E891E00E941F101D
:1023200080912B01811105C080917401882309F4EB
:1023300045C010922B011092740160913F01709181
:1023400040019B01215F3F4F615071094FE750E011
:1023500090E080E00E94450D8091D6039091D703D4
:102360002091D8033091D9033093D7032093D6031B
:102370009093D9038093D80321E04EE151E06FE3BD
:1023800071E08DE391E00E941F1021E047E651E0EB
:1023900068E871E086E891E00E941F108091D60302
:1023A0009091D7032091D8033091D9033093D7036C
:1023B0002093D6039093D9038093D803FF90EF9096
:1023C000DF90CF900895609147017091480120E01F
:1023D00045EE51E080914501909146010E94A80A86
:1023E00003CF609190017091910120E045EE51E0A2
:1023F00080918E0190918F010E94A80A1BCF60915D
:1024000043017091440120E045EE51E0809141018B
:10241000909142010E94A80A3FCF60918C01709177
:102420008D0120E045EE51E080918A0190918B0171
:102430000E94A80A57CF21E049EF52E068EB71E013
:102440008AEB91E00C941F100E94302285ED80935E
:10245000BC008091310390913203A0913303B0917D
:1024600034030796A11DB11D23E0B695A795979556
:1024700087952A95D1F72091BC0024FD03C01092C6
:102480002F0308954091310350913203609133033B
:1024900070913403452B462B472B69F30097A10518
:1024A000B10541F025E32A95F1F700000197A10954
:1024B000B109E1CF809130030C94A706CF92DF924F
:1024C000EF92FF920F931F93CF93DF93EB017B016A
:1024D00028E0E20EF11C8B016C01C61AD70AC60176
:1024E000800F911F0E94061FF80181938F01EE1546
:1024F000FF05A9F7CE01DF91CF911F910F91FF90BA
:10250000EF90DF90CF900895CF92DF92EF92FF92FD
:102510000F931F93CF93DF93EB017B012DE0E20E2E
:10252000F11C8B016C01C61AD70AC601800F911FDE
:102530000E94061FF80181938F01EE15FF05A9F790
:10254000CE01DF91CF911F910F91FF90EF90DF901F
:10255000CF900895CF93DF93EB010E94061F8883ED
:10256000CE01DF91CF910895FF920F931F93CF93E8
:10257000DF93EC01F62E08811981C8010E94061F25
:10258000F81621F06F2DC8010E940E1FCE01DF91B9
:10259000CF911F910F91FF900895AF92BF92CF926C
:1025A000DF92EF92FF920F931F93CF93DF9300D0B0
:1025B000CDB7DEB78B016B012DE0C20ED11C7B01C4
:1025C0005C01A61AB70AC5018E0D9F1D9A838983E7
:1025D000F70161917F01CE0101960E94B412EC14C3
:1025E000FD0489F7C8010F900F90DF91CF911F91E3
:1025F0000F91FF90EF90DF90CF90BF90AF90089534
:102600000F931F93CF93DF9300D0CDB7DEB78B012D
:102610009A838983FB016081CE0101960E94B412E6
:10262000C8010F900F90DF91CF911F910F910895E6
:10263000CF93DF93CDB7DEB72E970FB6F894DEBFFA
:102640000FBECDBF1E86BE01625F7F4F90E080E06F
:102650000E94AA128E85813A49F081EA8E87BE01D6
:10266000625F7F4F90E080E00E94001380911E0126
:1026700090911F01A0912001B091210189839A833B
:10268000AB83BC838091220190912301A09124010E
:10269000B09125018D839E83AF83B88780912601F9
:1026A00090912701A0912801B091290189879A87EB
:1026B000AB87BC8780912A018D87BE016F5F7F4FFA
:1026C00081E090E00E94CD128091670190916801B5
:1026D000A0916901B0916A0189839A83AB83BC831D
:1026E00080916B0190916C01A0916D01B0916E0190
:1026F0008D839E83AF83B88780916F019091700125
:10270000A0917101B091720189879A87AB87BC87CC
:10271000809173018D87BE016F5F7F4F8EE090E0E7
:102720000E94CD122E960FB6F894DEBF0FBECDBF1D
:10273000DF91CF910895FC0190919203992331F09C
:10274000913041F082E080939301089511A60E9498
:102750001813F8CF91A7FBCF4F925F926F927F92A1
:102760008F929F92AF92BF92CF92DF92EF92FF92A1
:102770000F931F93CF93DF93CDB7DEB76F970FB64D
:10278000F894DEBF0FBECDBF8C01CE0101967C0157
:102790006E0195E1C90ED11C5701F80186A50E9472
:1027A000CC05F501819391935F0169E170E080E0D0
:1027B00090E00E942306CA14DB0479F7412C512CC7
:1027C0003201F701619171917F0190E080E00E94F8
:1027D0006D209B01AC01C301B2010E94541F2B016B
:1027E0003C01AE14BF0469F720E030E040E251E460
:1027F0000E94C51F9B01AC0160E070EC8FE794E480
:102800000E94C51F20E030E040E85FE30E94531FB4
:102810009B01AC0160E070E48CE196E40E94C51F6E
:1028200020E030E44CE156E40E94C51F0E942C21B8
:1028300020E030EE46E755E40E94C51F2FE03FEC54
:102840004BE55BE30E94541F9B01AC0160E070E02C
:1028500080E89FE30E94C51F23E333E948E853E47F
:102860000E94531FF80125A136A147A150A50E943F
:10287000541F20E030E040E251E40E9474214B01FB
:102880005C0120E030E0A9010E941F2120E030E03F
:1028900040E05FE387FDDFC0C501B4010E94541F23
:1028A0000E9437200E946F2020E030E040E251E497
:1028B0000E94C51F4B015C01AC019B01F8016781BF
:1028C0007085818592850E94C01F882349F0F80198
:1028D00087829086A186B28681E0E85BFF4F808385
:1028E00020E030E048EC51ECC501B4010E94C01F6B
:1028F00087FD9AC020E030E040EA52E4C501B4010F
:102900000E941F2118160CF48FC0F8018780908454
:10291000A184B2842385348545855685C501B401DB
:102920000E94C01F87FF08C0F80183869486A58691
:10293000B68681E0838F848FF801278530894189AD
:102940005289C501B4010E941F21181644F4F801F0
:102950008786908AA18AB28A81E0838F848FF8016A
:10296000838D882309F460C00E945606F801878889
:10297000908CA18CB28C681979098A099B0983888B
:102980009488A588B688681579058A059B0508F49A
:102990004BC01F8EE080F9E0EF9E700111245701BB
:1029A0008BE1A80EB11CBE01615E7F4FC5010E9484
:1029B000AA128F8D813A41F081EA8F8FBE01615E4C
:1029C0007F4FC5010E940013F80183859485A5857A
:1029D000B6858D8B9E8BAF8BB88F87859089A189AB
:1029E000B289898F9A8FAB8FBC8F5701FCE1AF0EF4
:1029F000B11C84E2E80EF11CBE8EAD8EF601619131
:102A00006F01CE014D960E94B412FFEFAF1ABF0ABC
:102A1000EA14FB0489F7F801138E0E945606F801A8
:102A2000678B708F818F928F6F960FB6F894DEBF91
:102A30000FBECDBFDF91CF911F910F91FF90EF900F
:102A4000DF90CF90BF90AF909F908F907F906F90CE
:102A50005F904F900895C501B4010E94531F20CF8D
:102A60001F920F920FB60F9211242F933F938F93C3
:102A70009F93AF93BF938091EC029091ED02A09150
:102A8000EE02B091EF023091EB0223E0230F2D37DD
:102A900058F50196A11DB11D2093EB028093EC0225
:102AA0009093ED02A093EE02B093EF028091F002BA
:102AB0009091F102A091F202B091F3020196A11D52
:102AC000B11D8093F0029093F102A093F202B093B3
:102AD000F302BF91AF919F918F913F912F910F90F2
:102AE0000FBE0F901F90189526E8230F0296A11D88
:102AF000B11DD2CF1F920F920FB60F9211242F93B8
:102B00003F934F935F936F937F938F939F93AF9375
:102B1000BF93EF93FF938091B900887F803609F4CB
:102B20004AC0F0F5883209F4A7C018F5803109F4DD
:102B30009BC0B8F4882309F4F9C0883009F494C024
:102B4000FF91EF91BF91AF919F918F917F916F9185
:102B50005F914F913F912F910F900FBE0F901F905B
:102B60001895883109F488C0803251F780932D037D
:102B700014C0803409F49DC040F48033B9F3883325
:102B8000F9F680932D0385ECB0C0803509F485C03B
:102B9000883509F496C0883499F60E942612D0CF61
:102BA000883909F48CC038F5883729F050F4883614
:102BB00011F0803729F683E080932F031092EA0208
:102BC00057C0883809F47BC0803919F0803809F083
:102BD000B7CF8091EA02803208F071C0E091EA023A
:102BE00081E08E0F8093EA028091BB00F0E0E65313
:102BF000FD4F80833DC0803B39F0E0F4803A09F41A
:102C000079C0883A09F09CCF84E080932F0310921A
:102C1000C7021092C602E091C402F091C502099564
:102C20008091C60281110FC081E08093C60210928C
:102C3000A40209C0803C09F4A6CF883C09F4A3CFC4
:102C4000883B09F07DCFE091C70281E08E0F809331
:102C5000C702F0E0EC55FD4F80818093BB0090915E
:102C6000C7028091C60229C080910A038093BB00ED
:102C700085EC8093BC0064CF90912C0380912B0352
:102C8000981758F5E0912C0381E08E0F80932C0368
:102C9000F0E0E55FFC4F8081E9CFE0912C0381E01B
:102CA0008E0F80932C038091BB00F0E0E55FFC4F1A
:102CB000808390912C0380912B039817C8F285E8AC
:102CC000D8CFE0912C0381E08E0F80932C0380916C
:102CD000BB00F0E0E55FFC4F808380912E03811103
:102CE0005CCF81E08093090384EA8093BC0010925A
:102CF0002F0326CF85EC8093BC0010922F03809188
:102D0000EA02803230F4E091EA02F0E0E653FD4F4F
:102D100010826091EA0270E0E091C802F091C9026D
:102D20008AEC92E009951092EA020ACF10922D03E4
:102D300034CFFC01D90171836083428313821482F2
:102D4000158212962D913C911397378326834D91CE
:102D50005C9111975187408714968D919C9115979E
:102D6000009781F0841B950B0196938782871696B6
:102D70008D919C91009749F0821B930B019695874A
:102D80008487089590E080E0F0CF90E080E0F7CF76
:102D9000FF920F931F93CF93DF93CDB7DEB72897A2
:102DA0000FB6F894DEBF0FBECDBFE9E5F3E01382A6
:102DB000128288EE93E0A0E0B0E084839583A6833E
:102DC000B78380EC91E0918380839CE0E5E6F3E0BB
:102DD000DF01892F1D928A95E9F715861486E7ECA5
:102DE000F3E01382128215821482178216821186F2
:102DF0001086138612861486168615862FEF3FEFEF
:102E0000308B2787128A118A148A138A2FED33E0B8
:102E1000368B258B8FEF878B22ED31E0318320833A
:102E2000808F818F2CE3228F138E848F29EC33E0E7
:102E3000368F258F178E10A211A2E9EBF3E0DF0188
:102E40001D929A95E9F71586148666E278E0CF011F
:102E50000E94100988E0F82E8E010F5F1F4FF801C5
:102E60008F2D11928A95E9F7980145E06EEA71E09D
:102E70008BEA93E00E949916D801EF2D1D92EA95F6
:102E8000E9F7980146E062EA71E08DE993E00E947B
:102E90009916D801EF2D1D92EA95E9F7980143E0C4
:102EA0006CE971E08FE893E00E949916D801EF2D4C
:102EB0001D92EA95E9F7980142E068E971E081E83E
:102EC00093E00E949916D8011D92FA94E9F79801AF
:102ED00042E064E971E083E793E00E949916289646
:102EE0000FB6F894DEBF0FBECDBFDF91CF911F911B
:102EF0000F91FF900895CF93DF93CDB7DEB72E9754
:102F00000FB6F894DEBF0FBECDBF789484B5826053
:102F100084BD84B5816084BD85B5826085BD85B57D
:102F2000816085BD80916E00816080936E001092FB
:102F30008100809181008260809381008091810076
:102F40008160809381008091800081608093800007
:102F50008091B10084608093B1008091B000816065
:102F60008093B00080917A00846080937A00809191
:102F70007A00826080937A0080917A0081608093E9
:102F80007A0080917A00806880937A001092C10064
:102F90008DE00E94610560E08DE00E948005109246
:102FA000000185E00E94610560E085E00E948005E7
:102FB00086E00E94610560E086E00E94800587EC63
:102FC00093E00E94C6090E940D0D0E940D0D66E25D
:102FD00078E085E693E00E94100985E693E09093FF
:102FE000DB038093DA031E86BE01625F7F4F90E0B1
:102FF00080E00E94AA128E85813A09F05CC0BE0171
:103000006F5F7F4F81E090E00E94841289819A81F6
:10301000AB81BC8180931E0190931F01A09320017E
:10302000B09321018D819E81AF81B885809322016B
:1030300090932301A0932401B093250189859A855B
:10304000AB85BC858093260190932701A09328012E
:10305000B09329018D8580932A01BE016F5F7F4F58
:103060008EE090E00E94841289819A81AB81BC81BC
:103070008093670190936801A0936901B0936A01FE
:103080008D819E81AF81B88580936B0190936C0197
:10309000A0936D01B0936E0189859A85AB85BC853F
:1030A00080936F0190937001A0937101B0937201AE
:1030B0008D85809373011E86BE01625F7F4F8BE119
:1030C00090E00E94AA128E85813AF9F4BE016F5FEA
:1030D0007F4F8CE190E00E945E1289819A81AB81E2
:1030E000BC8180930C0190930D01A0930E01B093CD
:1030F0000F018D819E81AF81B885809310019093DF
:103100001101A0931201B0931301BE01625F7F4FC2
:1031100084E290E00E94AA128E85813AF9F4BE0101
:103120006F5F7F4F85E290E00E945E1289819A81F5
:10313000AB81BC818093550190935601A0935701B8
:10314000B09358018D819E81AF81B88580935901DC
:1031500090935A01A0935B01B0935C010E94E70534
:103160008093020368EE73E080E090E00E94230603
:1031700030E0A32E30E0B32E01E042E0D42E54E044
:10318000852E66E0362E75E0272E87E0E82E93E048
:10319000C92E28E0922E809103038111B6C0409081
:1031A000F4025090F5026090F6027090F70241141C
:1031B00051046104710409F09CC00093F8020E945C
:1031C00056066093F4027093F5028093F602909392
:1031D000F7028091F802882341F081E091E00E949B
:1031E000AC138AE491E00E94AC138091F80288232A
:1031F00041F081E091E00E947A0F8AE491E00E9420
:103200007A0F0E94E705F82E882309F481C083E035
:103210008F1550F00E9456066093050370930603C5
:10322000809307039093080329E020939301109162
:10323000030311112EC380910203F8126CC083E0C6
:10324000F81269C08091FE029091FF02A0910003E4
:10325000B0910103892B8A2B8B2B51F40E945606C7
:103260006093FE027093FF0280930003909301032A
:103270004090FE025090FF026090000370900103A6
:103280004114510461047104A9F00E9456066419A6
:10329000750986099709603A7F408105910550F0CC
:1032A000009393011092FE021092FF02109200030D
:1032B00010920103F092020382E0F81609F47BC039
:1032C00023E0F21609F4B6C081E0F81208C31150E9
:1032D000183008F004C3E12FF0E0EF58F64E0C94DC
:1032E0002A22A719AC19AF19AF19AF19D219D519DC
:1032F000D8190E94560664197509860997096C3D0C
:1033000075408105910508F058CF1092F80261CF01
:103310001092040389CF1092FE021092FF021092C5
:10332000000310920103F110C5CF8091F8028111C2
:103330000E94B11068EC70E080E090E00E942306EB
:10334000A114B10409F427CF0E9400001ECF8BEA1C
:1033500093E00E943B08C3C28DE993E0FACF40900E
:10336000F9025090FA026090FB027090FC0220E09B
:1033700030E040EA52E4C301B2010E94C01F87FF5F
:10338000AEC22DEC3CEC4CEC5DE3C301B2010E94FB
:10339000541F6093F9027093FA028093FB0290939A
:1033A000FC029DC28FE893E0D4CF81E893E0D1CFB7
:1033B00083E793E0CECF1150183008F090C2E12F90
:1033C000F0E0EB51F64E0C942A22ED19F219F519A2
:1033D000F519F519111A141A171A8BEA93E00E94BD
:1033E00044087DC28DE993E0FACF4090F9025090F5
:1033F000FA026090FB027090FC0220E030E048ECA2
:1034000051ECC301B2010E941F2118160CF067C2D3
:103410002DEC3CEC4CEC5DE3C301B2010E94531F68
:10342000B8CF8FE893E0DBCF81E893E0D8CF83E794
:1034300093E0D5CF80910403811151C2115018300F
:10344000B8F4E12FF0E0E95DF54E0C942A222F1A32
:10345000541A711A9B1AC31AEC1AFE1A501B809147
:10346000AE038230C9F038F4882361F0813079F0FE
:103470000093040334C28330A1F08430C9F7109262
:103480009301F6CF1092FD02E0929301F1CF809369
:10349000FD02D0929301ECCF8093FD0280939301C3
:1034A000E7CF90929301E4CF8091A003823081F026
:1034B00038F4882349F38130D9F6C0929301D8CFEC
:1034C000843061F040F0853099F600939301D0CFBD
:1034D00080929301CDCF20929301CACF3092930175
:1034E000C7CF8091FD02813099F48091F9029091CB
:1034F000FA02A091FB02B091FC0280931E0190930E
:103500001F01A0932001B09321010E941813C1CF85
:103510008230D9F78091F9029091FA02A091FB02D2
:10352000B091FC028093670190936801A0936901B8
:10353000B0936A01EACF8091FD02813089F48091D5
:10354000F9029091FA02A091FB02B091FC028093E3
:10355000220190932301A0932401B0932501D5CF9C
:10356000823099F68091F9029091FA02A091FB02C3
:10357000B091FC0280936B0190936C01A0936D015C
:10358000B0936E01C2CF8091FD02813089F48091A9
:10359000F9029091FA02A091FB02B091FC02809393
:1035A000260190932701A0932801B0932901ADCF64
:1035B000823009F0AACF8091F9029091FA02A0918D
:1035C000FB02B091FC0280936F0190937001A09375
:1035D0007101B093720199CF8091FD02813021F485
:1035E00081E091E00E949B138091FD02823009F0FE
:1035F0003FCF8AE491E00E949B133ACF8091FD0275
:10360000811141C080918403882321F0813009F425
:1036100045CF2ECF8091080190910901A0910A0118
:10362000B0910B0180930C0190930D01A0930E01BA
:10363000B0930F018093100190931101A093120198
:10364000B093130100931C0100931D01809151015F
:1036500090915201A0915301B09154018093550172
:1036600090935601A0935701B0935801809359014C
:1036700090935A01A0935B01B0935C0100936501A4
:1036800000936601FCCE813029F481E091E00E9434
:103690000110EECE823009F0EBCE8AE491E0F7CF54
:1036A00080917603882321F0813009F40ECFE0CE9B
:1036B0001982BE016F5F7F4F90E080E00E94AA12E6
:1036C0008981813A49F480EA8983BE016F5F7F4F27
:1036D00090E080E00E940013BE016F5F7F4F8BE19E
:1036E00090E00E94AA128981813A49F480EA898394
:1036F000BE016F5F7F4F8BE190E00E940013BE011F
:103700006F5F7F4F84E290E00E94AA128981813A24
:1037100049F480EA8983BE016F5F7F4F84E290E0C5
:103720000E9400130CE211E06AE070E080E090E09B
:103730000E94230601501109B9F788E198E00FB6FD
:10374000F894A895809360000FBE90936000FFCF1F
:1037500066EF71E085E693E00E94100985E693E04C
:103760009093DB038093DA03EFC0823019F48DE984
:1037700093E0F4C0833031F5809193018930A1F05A
:103780008091FD02813099F480911E0190911F017A
:10379000A0912001B09121018093F9029093FA0247
:1037A000A093FB02B093FC020E941B12C3CD823097
:1037B000D9F78091670190916801A0916901B0915A
:1037C0006A01EACF8430E1F480919301893061F39A
:1037D0008091FD02813049F4809122019091230172
:1037E000A0912401B0912501D7CF8230E9F68091D4
:1037F0006B0190916C01A0916D01B0916E01CCCFE5
:103800008530E9F480919301893071F28091FD0255
:10381000813049F48091260190912701A0912801DF
:10382000B0912901B9CF823009F0BECF80916F01EC
:1038300090917001A0917101B0917201ADCF86306D
:1038400019F48FE893E08AC0873081F48091930166
:10385000893049F080918403813029F081E893E038
:103860000E944408F7CF81E893E078C0883009F0DF
:1038700061CD80919301893049F080917603813048
:1038800029F083E793E00E944408F7CF83E793E0B1
:1038900065C0F1100FCD4090050350900603609075
:1038A000070370900803411451046104710409F482
:1038B0004BC00E9456066419750986099709603342
:1038C00075478105910508F43FC01092930110924D
:1038D00005031092060310920703109208038091CB
:1038E000930190910303893079F1891769F18093ED
:1038F00003030E940D0D10910303112329F08DEF96
:10390000810F833008F024CF66E278E085E693E00B
:103910000E94100985E693E09093DB038093DA031D
:1039200080910303111115C00093F80200931D014B
:1039300000932B01009349010093660100937401E9
:10394000009392010E94B11080910303882309F42F
:10395000ECCC813009F009CF8BEA93E00E94680E2D
:10396000E9CCEF920F931F93CF93DF93E80134E0FC
:1039700047FD34E1042E000C550B57FF03C0519551
:1039800041955109E32E022F242FAE010E94CF1C36
:10399000CE01DF91CF911F910F91EF900895A9E093
:1039A000B0E0E5EDFCE10C94221F6A01F22EB02E8E
:1039B000102FFBE3AF2EA01608F41BE31F5F012FAF
:1039C00027E0AE014F5F5F4F0E942E1EBC01898130
:1039D000982F9970913009F43FC09BE2E1FC04C03C
:1039E0009E2D9170E0FC3AC05E2D5071E82FE8707A
:1039F00083FF46C084E0911101C083E0EF2DE81BF6
:103A00008F1508F0E0E0D6018E2F20E2552351F10A
:103A1000992329F0D6019C93C60101966C01960169
:103A20002D5F3F4FE2FE24C08EE4D6018C9391E4DB
:103A300011969C93119712968C93D9018E2F90E238
:103A400081111BC0E20FF32FF11D10828EEF9FEF4B
:103A50002996ECE00C943E1F9DE2C6CF90E2C4CFC5
:103A60002D9381508111FCCFCE0ED11CE0E0D0CF40
:103A70008EE6D6018C9391E6DBCF9D938150E0CF0B
:103A8000482F447082FF3DC084E0911101C083E063
:103A90008F1510F4EF2DE81BD6018E2F20E2552351
:103AA00009F1992329F0D6019C93C60101966C0176
:103AB00096012D5F3F4FE2FE1BC089E4D6018C9337
:103AC0008EE411968C93119786E412968C93D9010B
:103AD0008E2F90E2882309F4B5CF9D938150FACFC1
:103AE0002D9381508111FCCFCE0ED11CE0E0D9CFB7
:103AF00089E6D6018C938EE611968C93119786E613
:103B0000E4CF9B0177FF02C030E020E0A1E0B0E00D
:103B1000911102C0B0E0A0E0F9013196AE0FBF1FD5
:103B20008B2C912CBB2009F461C05401EFEFAE1A2D
:103B3000BE0AAA0DBB1DFA161B0619F014F04F2D74
:103B40004A1B511188C0E3FC59C07601A42FB0E292
:103B5000A1114FC0C40ED11C992309F45BC040E0F1
:103B6000D6011196F60190836D01552309F448C0E2
:103B7000012F060F9A81582F507184FF03C0913393
:103B800009F4015010160CF047C0093008F008E0A5
:103B9000EEE2FE2E5B01A01AB1088501919481949A
:103BA00091082F3F320729F4D601FC92F601319695
:103BB0006F016217730794F1021713077CF5DB019D
:103BC000A21BB30BAA24A394B12CAC0EBD1EAA0D4C
:103BD000BB1D11968C9121503109D60111962815E3
:103BE0003905F4F0F60180836D01DBCFB12CA12CF7
:103BF000A0CFF701B1937F01A150AACF9111B0CF0F
:103C0000D601942F50E302C05D9391509111FCCFE7
:103C1000C40ED11C40E0ACCF01E0BACF80E3DBCFD3
:103C20006217730731F4963388F4953311F45523F2
:103C300069F0F6018083FD01842F90E2811108C0B4
:103C4000A40FB11D1C9290E080E002CF81E3F1CF80
:103C500091938150F3CF911183CF8ACF283008F010
:103C600027E03327DA01990F311D87FD9160009617
:103C70006105710539F432602E5F3D9330E32A957A
:103C8000E1F708959F3F30F080387105610509F034
:103C90003C5F3C5F3D93913008F08068911DDF935D
:103CA000CF931F930F93FF92EF92192F987F9695C2
:103CB000E92F96959695E90FFF27E45EFE4F992729
:103CC0003327EE24FF24A701E70105900894079409
:103CD00028F4360FE71EF81E491F511D660F771F87
:103CE000881F991F0694A1F70590079428F4E70E02
:103CF000F81E491F561FC11D770F881F991F661F89
:103D00000694A1F70590079428F4F80E491F561F52
:103D1000C71FD11D880F991F661F771F0694A1F733
:103D20000590079420F4490F561FC71FD81F990FFD
:103D3000661F771F881F0694A9F784911095177046
:103D400041F0D695C79557954795F794E7941A95FE
:103D5000C1F7E2ECF0E0689415901591359165910A
:103D6000959105907FE27395E118F10A430B560B8C
:103D7000C90BD009C0F7E10CF11E431F561FC91F24
:103D8000D01D7EF4703311F48A95E6CFE89401508B
:103D900030F0080F0AF40027021708F4202F2395AB
:103DA000022F7A3328F079E37D932A95E9F710C042
:103DB0007D932A9589F6069497956795379517957B
:103DC0001794E118F10A430B560BC90BD00998F070
:103DD00023957E9173957A3308F070E37C932013DA
:103DE000B8F77E9170617D9330F0839571E37D9398
:103DF00070E32A95E1F71124EF90FF900F911F9146
:103E0000CF91DF91992787FD90950895F999FECF7D
:103E100092BD81BDF89A992780B50895262FF9990A
:103E2000FECF1FBA92BD81BD20BD0FB6F894FA9A9D
:103E3000F99A0FBE019608952F923F924F925F928A
:103E40006F927F928F929F92AF92BF92CF92DF92AA
:103E5000EF92FF920F931F93CF93DF93CDB7DEB70F
:103E6000CA1BDB0B0FB6F894DEBF0FBECDBF0994A3
:103E70002A88398848885F846E847D848C849B84FA
:103E8000AA84B984C884DF80EE80FD800C811B8108
:103E9000AA81B981CE0FD11D0FB6F894DEBF0FBE37
:103EA000CDBFED0108955058BB27AA270E946B1F74
:103EB0000C94E5200E94D72038F00E94DE2020F0EC
:103EC00039F49F3F19F426F40C94D4200EF4E095B5
:103ED000E7FB0C94CE20E92F0E94F62058F3BA1786
:103EE000620773078407950720F079F4A6F50C9410
:103EF00018210EF4E0950B2EBA2FA02D0B01B9015D
:103F000090010C01CA01A0011124FF27591B99F04F
:103F1000593F50F4503E68F11A16F040A22F232F5B
:103F2000342F4427585FF3CF469537952795A795AB
:103F3000F0405395C9F77EF41F16BA0B620B730B52
:103F4000840BBAF09150A1F0FF0FBB1F661F771FC3
:103F5000881FC2F70EC0BA0F621F731F841F48F478
:103F6000879577956795B795F7959E3F08F0B0CF01
:103F70009395880F08F09927EE0F979587950895E8
:103F80000E94AA2008F481E008950E94D91F0C9491
:103F9000E5200E94DE2058F00E94D72040F029F44E
:103FA0005F3F29F00C94CE2051110C9419210C94F0
:103FB000D4200E94F62068F39923B1F3552391F39E
:103FC000951B550BBB27AA2762177307840738F088
:103FD0009F5F5F4F220F331F441FAA1FA9F335D0E5
:103FE0000E2E3AF0E0E832D091505040E695001C99
:103FF000CAF72BD0FE2F29D0660F771F881FBB1F53
:10400000261737074807AB07B0E809F0BB0B802D30
:10401000BF01FF2793585F4F3AF09E3F510578F05C
:104020000C94CE200C9419215F3FE4F3983ED4F316
:10403000869577956795B795F7959F5FC9F7880F30
:10404000911D9695879597F90895E1E0660F771F82
:10405000881FBB1F621773078407BA0720F0621B13
:10406000730B840BBA0BEE1F88F7E09508950E943E
:104070003E206894B1110C94192108950E94FE20ED
:1040800088F09F5798F0B92F9927B751B0F0E1F019
:10409000660F771F881F991F1AF0BA95C9F714C0C9
:1040A000B13091F00E941821B1E008950C941821CC
:1040B000672F782F8827B85F39F0B93FCCF3869502
:1040C00077956795B395D9F73EF49095809570955F
:1040D00061957F4F8F4F9F4F0895E89409C097FBDC
:1040E0003EF490958095709561957F4F8F4F9F4FCF
:1040F0009923A9F0F92F96E9BB279395F695879513
:1041000077956795B795F111F8CFFAF4BB0F11F4D5
:1041100060FF1BC06F5F7F4F8F4F9F4F16C088237C
:1041200011F096E911C0772321F09EE8872F762FB2
:1041300005C0662371F096E8862F70E060E02AF0F3
:104140009A95660F771F881FDAF7880F96958795DF
:1041500097F90895990F0008550FAA0BE0E8FEEFB4
:1041600016161706E807F907C0F012161306E4073B
:10417000F50798F0621B730B840B950B39F40A2634
:1041800061F0232B242B252B21F408950A2609F412
:10419000A140A6958FEF811D811D089597F99F6716
:1041A00080E870E060E008959FEF80EC08950024BF
:1041B0000A941616170618060906089500240A948C
:1041C00012161306140605060895092E0394000C12
:1041D00011F4882352F0BB0F40F4BF2B11F460FFA1
:1041E00004C06F5F7F4F8F4F9F4F089557FD9058CA
:1041F000440F551F59F05F3F71F04795880F97FBAB
:10420000991F61F09F3F79F0879508951216130664
:104210001406551FF2CF4695F1DF08C01616170693
:104220001806991FF1CF86957105610508940895C8
:10423000E894BB2766277727CB0197F908950E945A
:10424000AA2008F48FEF089516F00C94E1210C9445
:10425000D42068940C94CE200E94FE20A8F39923C9
:10426000C1F3AEF3DF93CF931F930F93FF92C92F48
:10427000DD2788232AF02197660F771F881FDAF73A
:1042800020E030E040E85FEB9FE3883920F0803E9B
:1042900038F021968F770E94541FE8E6F0E004C0C2
:1042A0000E94541FE5E9F0E00E94EF218B01BE015E
:1042B000EC01FB2E6F5771097595771F880B990BD1
:1042C0000E946F2028E132E741E35FE30E948721EB
:1042D000AF2D9801AE01FF900F911F91CF91DF910B
:1042E0000E946B1F0C94E5200E9487210C94E5200E
:1042F0000E94D72038F00E94DE2020F0952311F094
:104300000C94CE200C94D42011240C9419210E94DA
:10431000F62070F3959FC1F3950F50E0551F629FF3
:10432000F001729FBB27F00DB11D639FAA27F00D0E
:10433000B11DAA1F649F6627B00DA11D661F829F35
:104340002227B00DA11D621F739FB00DA11D621F1A
:10435000839FA00D611D221F749F3327A00D611D37
:10436000231F849F600D211D822F762F6A2F112419
:104370009F5750409AF0F1F088234AF0EE0FFF1F4C
:10438000BB1F661F771F881F91505040A9F79E3FA3
:10439000510580F00C94CE200C9419215F3FE4F37A
:1043A000983ED4F3869577956795B795F795E795F9
:1043B0009F5FC1F7FE2B880F911D9695879597F902
:1043C00008959F3F31F0915020F487957795679538
:1043D000B795880F911D9695879597F90895DF9366
:1043E000CF931F930F93FF92EF92DF927B018C018B
:1043F000689406C0DA2EEF010E948721FE01E8943E
:10440000A5912591359145915591A6F3EF010E9413
:104410006B1FFE019701A801DA9469F7DF90EF9016
:10442000FF900F911F91CF91DF910895AA1BBB1BA5
:1044300051E107C0AA1FBB1FA617B70710F0A61BA4
:10444000B70B881F991F5A95A9F780959095BC01C5
:10445000CD010895EE0FFF1F0590F491E02D099412
:0E44600081E090E0F8940C943522F894FFCFA0
:10446E0001002331000000000000D0C10000A04276
:10447E000000C8C10074B701000000000001000078
:10448E00C041000040400000000000010005001087
:10449E00000C001400280016000200180002003064
:1044AE00001E0008001E0000000001233200000064
:1044BE00000000D0C10000A0420000C8C10074B7C7
:1044CE00010000000000010000C04100004040005B
:1044DE00000000000100060011004B0014006900EE
:1044EE001600410018004100300050000800500036
:1044FE0000000009EF01FE010802FE0116021F0274
:10450E00FE0108022902370242024D02FE01080294
:10451E00520261027002FE0118002300000000002A
:10452E000808DB073708B107D407C107B207000038
:10453E000000C6093A084552524F52002020200072
:10454E004D61783A00202D2D20004D696E3A0052B3
:10455E0045494E495449414C4953455221003C2D41
:10456E00205265746F7572004566666163657220D0
:10457E007374617473004368617566666572005288
:10458E006566726F69646972004465636C656E631B
:10459E0068656D656E7400446966666572656E6306
:1045AE0065004574616C6F6E6E616765004D6F647A
:1045BE00650054656D706572617475726520233186
:1045CE000054656D706572617475726520233200DA
:0E45DE005265696E697469616C69736572007B
:00000001FF
